:100000000C9434000C9446000C9446000C9446006A
:100010000C9446000C9446000C9446000C94460048
:100020000C9446000C9446000C9446000C94460038
:100030000C9446000C9446000C944C030C9446001F
:100040000C9446000C9446000C9446000C94460018
:100050000C9446000C9446000C9446000C94460008
:100060000C9446000C94460011241FBECFEFD8E03C
:10007000DEBFCDBF11E0A0E0B1E001C01D92A7300E
:10008000B107E1F70E9458010C9485030C9400001D
:1000900080917A0090E066E00E94FA0080937A00F6
:1000A00080917A0090E064E00E941D01892BC1F3E9
:1000B0000895FF920F931F93F82E0CE710E0F801BC
:1000C00080816F2D0E942D01F80180838F2D90E09B
:1000D0000E9432016FE170E00E943701682FF80141
:1000E00080810E942F01F80180831F910F91FF9062
:1000F0000895FF920F931F93F82E0AE710E0F8017E
:1001000080816F2D0E942D01F80180838F2D90E05A
:100110000E94320167E070E00E943701682FF80109
:1001200080810E942F01F80180831F910F91FF9021
:100130000895813039F480917A0090E067E00E9460
:10014000FA0006C080917A0090E067E00E94050105
:1001500080937A0008950F931F93182F90E067E023
:100160000E941D01082F812F90E066E00E941D0172
:10017000182F002339F080917C0090E067E00E9406
:10018000FA0006C080917C0090E067E00E940501C3
:1001900080937C00112339F080917C0090E066E030
:1001A0000E94FA0006C080917C0090E066E00E9408
:1001B000050180937C001F910F9108951F93162FC6
:1001C0000E94AB00812F0E94790081E00E9499007B
:1001D0001F9108950E9459000E9448008091790063
:1001E00090E068E070E00E94430120917800820F67
:1001F000911D089521E030E002C0220F331F6A955F
:10020000E2F7282B392BC901089521E030E002C024
:10021000220F331F6A95E2F7209530952823392362
:10022000C901089521E030E002C0220F331F6A9512
:10023000E2F728273927C901089521E030E002C0FC
:10024000220F331F6A95E2F7282339232115310540
:1002500011F021E030E0C9010895862B08956095E2
:10026000862308959C0120953095C901089568233F
:100270007923CB010895682B792BCB01089568274A
:100280007927CB0108959C0140E003C0220F331F62
:100290004F5F842F90E086179707C0F3C901089538
:1002A0009C0102C0369527956A95E2F7C901089529
:1002B0001F93CF93DF9380E065E041E00E94C1028D
:1002C0000E94420381E090E066E070E00E944301FA
:1002D00067E00E94DE0083E00E94EA000E949C0129
:1002E00082E090E068E070E00E945502EC0110E0CE
:1002F00017C080E065E041E00E946E026CE271E0B0
:1003000080E090E00E94140380E065E040E00E94FD
:100310006E026CE271E080E090E00E9414031F5FC7
:10032000812F90E08C179D0720F360ED77E080E04F
:1003300090E00E941403D4CF9093060180930501AE
:1003400008958093000108956FE00E941D010895B3
:1003500060E00E941D010895EF92FF920F931F939A
:10036000CF93DF93EC01162F809105019091060148
:1003700020910001222321F0213009F06EC035C008
:10038000CE016EE00E941D01082FCE016DE00E949B
:100390001D01F82ECE016BE00E941D01E82ECE015A
:1003A00061E070E00E945001112321F46FE00E948F
:1003B000050103C06FE00E94FA00101721F46DE000
:1003C0000E94050103C06DE00E94FA001F1521F490
:1003D0006CE00E94050103C06CE00E94FA001E154B
:1003E00011F46AE034C06AE036C0CE0161E00E94D8
:1003F0001D01082FCE0162E00E941D01F82ECE01E2
:1004000064E00E941D01E82ECE0161E070E00E94D0
:100410005001112321F460E00E94050103C060E057
:100420000E94FA00101721F462E00E94050103C047
:1004300062E00E94FA001F1521F463E00E940501AA
:1004400003C063E00E94FA001E1521F465E00E94DB
:10045000050103C065E00E94FA00DF91CF911F9172
:100460000F91FF90EF90089580910001882321F073
:10047000813041F060E00EC080910501909106014D
:1004800060E005C080910501909106016FE00E9437
:100490001D01682F80910501909106010E94AC0119
:1004A00080930501909306010895EF92FF920F93B8
:1004B0001F938C017B010E943402E01AF10A089418
:1004C000E11CF11CB7010E9471039C01200F311F38
:1004D000C9011F910F91FF90EF9008958130F9F0BD
:1004E000813020F0823009F04BC032C0413059F4E5
:1004F00025B181E090E002C0880F991F6A95E2F76C
:10050000282B25B9089525B181E090E002C0880F1D
:10051000991F6A95E2F78095822385B90895413045
:1005200059F428B181E090E002C0880F991F6A95C4
:10053000E2F7282B28B9089528B181E090E002C0A5
:10054000880F991F6A95E2F78095822388B90895EC
:10055000413059F42BB181E090E002C0880F991F1F
:100560006A95E2F7282B2BB908952BB181E090E032
:1005700002C0880F991F6A95E2F7809582238BB994
:1005800008958130F9F0813020F0823009F04BC0BD
:1005900032C0413059F424B181E090E002C0880FAC
:1005A000991F6A95E2F7282B24B9089524B181E0B8
:1005B00090E002C0880F991F6A95E2F78095822328
:1005C00084B90895413059F427B181E090E002C028
:1005D000880F991F6A95E2F7282B27B9089527B14C
:1005E00081E090E002C0880F991F6A95E2F780953C
:1005F000822387B90895413059F42AB181E090E00F
:1006000002C0880F991F6A95E2F7282B2AB908952E
:100610002AB181E090E002C0880F991F6A95E2F745
:10062000809582238AB90895EF92FF920F931F93CA
:100630007B018C0120910101309102014091030165
:10064000509104018091010190910201A091030158
:10065000B0910401821B930BA40BB50B8E159F0563
:10066000A007B10778F32091010130910201409178
:10067000030150910401B901CA011F910F91FF902C
:10068000EF90089582E084BD93E095BD99EF97BD0A
:1006900080936E00789408951F920F920FB60F9278
:1006A00011248F939F93AF93BF93809101019091F9
:1006B0000201A0910301B09104010196A11DB11D99
:1006C0008093010190930201A0930301B093040170
:1006D000BF91AF919F918F910F900FBE0F901F9080
:1006E0001895AA1BBB1B51E107C0AA1FBB1FA61769
:1006F000B70710F0A61BB70B881F991F5A95A9F7CB
:0E07000080959095BC01CD010895F894FFCF2F
:00000001FF
