:100000000C9434000C9446000C9446000C9446006A
:100010000C9446000C9446000C9446000C94460048
:100020000C9446000C9446000C9446000C94460038
:100030000C9446000C9446000C94FB020C94460071
:100040000C9446000C9446000C9446000C94460018
:100050000C9446000C9446000C9446000C94460008
:100060000C9446000C94460011241FBECFEFD8E03C
:10007000DEBFCDBF11E0A0E0B1E001C01D92A6300F
:10008000B107E1F70E9458010C9434030C9400006E
:1000900080917A0090E066E00E94FA0080937A00F6
:1000A00080917A0090E064E00E941D01892BC1F3E9
:1000B0000895FF920F931F93F82E0CE710E0F801BC
:1000C00080816F2D0E942D01F80180838F2D90E09B
:1000D0000E9432016FE170E00E943701682FF80141
:1000E00080810E942F01F80180831F910F91FF9062
:1000F0000895FF920F931F93F82E0AE710E0F8017E
:1001000080816F2D0E942D01F80180838F2D90E05A
:100110000E94320167E070E00E943701682FF80109
:1001200080810E942F01F80180831F910F91FF9021
:100130000895813039F480917A0090E067E00E9460
:10014000FA0006C080917A0090E067E00E94050105
:1001500080937A0008950F931F93182F90E067E023
:100160000E941D01082F812F90E066E00E941D0172
:10017000182F002339F080917C0090E067E00E9406
:10018000FA0006C080917C0090E067E00E940501C3
:1001900080937C00112339F080917C0090E066E030
:1001A0000E94FA0006C080917C0090E066E00E9408
:1001B000050180937C001F910F9108951F93162FC6
:1001C0000E94AB00812F0E94790081E00E9499007B
:1001D0001F9108950E9459000E9448008091790063
:1001E00090E068E070E00E94430120917800820F67
:1001F000911D089521E030E002C0220F331F6A955F
:10020000E2F7282B392BC901089521E030E002C024
:10021000220F331F6A95E2F7209530952823392362
:10022000C901089521E030E002C0220F331F6A9512
:10023000E2F728273927C901089521E030E002C0FC
:10024000220F331F6A95E2F7282339232115310540
:1002500011F021E030E0C9010895862B08956095E2
:10026000862308959C0120953095C901089568233F
:100270007923CB010895682B792BCB01089568274A
:100280007927CB0108959C0140E003C0220F331F62
:100290004F5F842F90E086179707C0F3C901089538
:1002A0009C0102C0369527956A95E2F7C901089529
:1002B0001F93CF93DF9380E065E041E00E947002DE
:1002C0000E94F10281E090E066E070E00E9443014C
:1002D00067E00E94DE0083E00E94EA000E94B10114
:1002E00082E090E068E070E00E940402EC0110E01F
:1002F00017C080E065E041E00E941D026CE271E001
:1003000080E090E00E94C30280E065E040E00E944F
:100310001D026CE271E080E090E00E94C3021F5F6A
:10032000812F90E08C179D0720F360ED77E080E04F
:1003300090E00E94C302D4CF1F93162F61E070E0BB
:100340000E945001112321F46FE00E94050103C0B7
:100350006FE00E94FA0080930401909305011F91C1
:1003600008950F931F938C016FE00E941D01682F69
:10037000C8010E949C0190930501809304011F9184
:100380000F910895DF92EF92FF920F931F938C01CC
:1003900060E00E941D01D82EC80162E00E941D018C
:1003A000F82EC80163E00E941D01E82EC80165E037
:1003B0000E941D01182F8F2D90E06D2D70E00E947E
:1003C0003F01BC018E2D90E00E943F01BC01812FB6
:1003D00090E00E943F0190E061E070E00E943701F0
:1003E0001F910F91FF90EF90DF900895809104018D
:1003F000909105010E94C201682F809104019091A3
:1004000005010E949C010895EF92FF920F931F93A4
:100410008C017B010E94F601E01AF10A0894E11CAC
:10042000F11CB7010E9420039C01200F311FC9015C
:100430001F910F91FF90EF9008958130F9F0813076
:1004400020F0823009F04BC032C0413059F425B160
:1004500081E090E002C0880F991F6A95E2F7282B8F
:1004600025B9089525B181E090E002C0880F991F59
:100470006A95E2F78095822385B90895413059F451
:1004800028B181E090E002C0880F991F6A95E2F7D9
:10049000282B28B9089528B181E090E002C0880F88
:1004A000991F6A95E2F78095822388B908954130B3
:1004B00059F42BB181E090E002C0880F991F6A9532
:1004C000E2F7282B2BB908952BB181E090E002C010
:1004D000880F991F6A95E2F7809582238BB908955A
:1004E0008130F9F0813020F0823009F04BC032C009
:1004F000413059F424B181E090E002C0880F991F87
:100500006A95E2F7282B24B9089524B181E090E0A0
:1005100002C0880F991F6A95E2F78095822384B9FB
:100520000895413059F427B181E090E002C0880F6E
:10053000991F6A95E2F7282B27B9089527B181E022
:1005400090E002C0880F991F6A95E2F78095822398
:1005500087B90895413059F42AB181E090E002C092
:10056000880F991F6A95E2F7282B2AB908952AB1B6
:1005700081E090E002C0880F991F6A95E2F78095AC
:1005800082238AB90895EF92FF920F931F937B0104
:100590008C012091000130910101409102015091A4
:1005A00003018091000190910101A0910201B0919D
:1005B0000301821B930BA40BB50B8E159F05A0079F
:1005C000B10778F3209100013091010140910201BF
:1005D00050910301B901CA011F910F91FF90EF9053
:1005E000089582E084BD93E095BD99EF97BD809317
:1005F0006E00789408951F920F920FB60F921124F7
:100600008F939F93AF93BF938091000190910101CD
:10061000A0910201B09103010196A11DB11D80932B
:10062000000190930101A0930201B0930301BF91D7
:10063000AF919F918F910F900FBE0F901F901895C3
:10064000AA1BBB1B51E107C0AA1FBB1FA617B707F8
:1006500010F0A61BB70B881F991F5A95A9F7809514
:0C0660009095BC01CD010895F894FFCFE7
:00000001FF
